:020000040000FA
:1000000083168501860107309F008312A001A1019C
:1000100026201520A10A21080A3A031D0828A00A53
:1000200020080A3A031D07280628FF30A4001B20D9
:10003000A40B17280800013085002208860038200C
:1000400002308500230886003820080021082D2072
:10005000A20020082D20A30008008207C034F93434
:10006000A434B034993492348234F83480349034E7
:0A007000FF30A500A50B3A28080098
:04007A00003400341A
:02400E003A3F37
:00000001FF
